:020000040000FA
:020000000528D1
:040002000034003492
:02000800B4281A
:06000A00D8308B008316C4
:1000100003138730810083160313FE30960083128A
:1000200003139813181383160313181318121815B3
:10003000831603178711831603131930990083164B
:10004000031380308500803087008030880089016C
:10005000FF3086008316031789018801831203137A
:1000600085018701880189010830A000A301B6013C
:10007000B901B001B101B201B301B401B5014F281A
:100080008207FE34FD34FB34F734EF34DF3482076B
:100090003D34713479345E3439347C3477345028CB
:1000A000FF30870030308400360884070008850060
:1000B000360840208700B60A063036020319B6011A
:1000C000851B8528632841184F2840187328692804
:1000D0004F28891498178316031398168312031355
:1000E0004014A7204F283E30990083160313981C14
:1000F0007728831203138910981383160313981219
:10010000831203134010A7204F2840184F28881B44
:100110004F288A2841189C288E28A72009148B1262
:1001200009112310831603138C16831203139817D7
:1001300018164114A7204F280910831603138C1298
:1001400083120313181298134110A7204F2803306D
:10015000A7008330A600FF30A500A50BAD28A60B95
:10016000AB28A70BA9280800B700030EB8000B188E
:10017000C0288B18E1280B19EF288C1AFC280900DD
:100180008618C4280430DB280619C8280330DB2869
:100190008619CC280230DB28061AD0280130DB284B
:1001A000861AD4280030DB28061BD8280630DB2826
:1001B000861B0E2905304720401CDF289900880047
:1001C0000E292318EB28E4284118122923148B1632
:1001D000013081001229231009118B121229A00B62
:1001E000F9280830A000091DF628F8280915F92873
:1001F00009110130810015298C1209111A08473C98
:100200004720A8003030840039088407280880007F
:10021000B90A3908063C0319B901182906080B1058
:100220001A2109001A218B1009001A210B1109004B
:0E0230001A210900380E8300B70E370E0800A1
:02400E00F43F7D
:02401000FF3F70
:00000001FF
